S02B0000433A2F55736572732F616C756E6F2F4465736B746F702F4D6963726F2F556172745465726D696E61FB
S1130000440080023A700150FA70015074260003D3
S113001004A025633400C4020400C85A3502005BFE
S11300203AD41C603503805BC401C0033501C05B56
S113003034000402040000424400C0033500C043FD
S11300403A2800F8041191013A2800F80000000051
S1130050000000000000000000000000000000009C
S11300600000000000000000000000003A313100F0
S1130070260500C004FF7FEF4C0040C32601006842
S1130080C0140000060000003A0880EF00000000E1
S1130090000000000000000000000000000000005C
S11300A0000000000000000000000000000000004C
S11300B0000000000000000000000000000000003C
S11300C0000000000000000000000000000000002C
S11300D0000000000000000000000000000000001C
S11300E0000000000000000000000000000000000C
S11300F000000000000000000000000000000000FC
S113010000000000000000000000000000000000EB
S113011000000000000000000000000000000000DB
S113012000000000000000000000000000000000CB
S113013000000000000000000000000000000000BB
S113014000000000000000000000000080310000FA
S11301503A2800F834000404040004840440C1056F
S1130160C43F000537014085ECFF7FAD26FD3FA865
S11301703400800504C080B5070040B4260300881D
S113018035004084440080B506FB3F0037004084BE
S11301900C00E08C26FD3F983A70228D3701408593
S11301A0ECFF7FAD26FD3FA83500408404028005A6
S11301B01E03808D04FFFFBD350000B80602000059
S11301C0350040BC0401C0BD840280041EEFBF8C16
S11301D00440C105170000BD040C4005260540A5D8
S11301E0440C4005262A40A5840C4005263540A52C
S11301F006DA3F000401C0BD170000BD040C400531
S1130200260340A5440C4005261140A506D33F0013
S11302100401C0BD170000BD040840051ECF7FA522
S11302200401C0BD170000BD8402400526CB3FADCC
S11302303A8809A00401C0BD170000BD840240052E
S113024026C63FAD3A880BA0803A000006C33F00A3
S11302500401C0BD170000BD040840051EBF7FA5F2
S11302600401C0BD170000BD8402400526BB3FAD9C
S11302703A8809A00401C0BD170000BD84024005EE
S113028026B63FAD3A880BA08036000006B33F0087
S11302900401C0BD170000BD8402400526AF3FAD78
S11302A0040C4005260300AD440C4005260300ADB4
S11302B006AA3F000000000006A83F00400400001A
S11302C006A63F000401C0BD170000BD840240051E
S11302D026A23FAD040C4005260300AD440C4005A6
S11302E0260300AD069D3F0000000000069B3F0072
S11302F08035000006993F0006983F0006FF3F0046
S1130300456E74726520636F6D206F20636F6D613D
S11303106E646F3A200000003400040204000042BE
S1130320340044020410404A3700804A4C00C05252
S1130330440000032604005B370000437AD01860B1
S1130340350000433A2800F8370000437A901860DB
S1130350350000433A2800F8849999013A2800F8B6
S1130360445595013A2800F8340004020400004280
S113037004F4BF22FA9016507A9014503A88955A91
S11303803A88930204F4BF2A3A88934A44008002CC
S11303903A9852523A30524A3700C0423A70525A4E
S11303A0350040423A2800F83400040204000042B8
S11303B004F4BF22FA9016507A9014503A88955A51
S11303C03A88930204F4BF2A3A88934A440080028C
S11303D03A9852523700C0423AB0525A350040421D
S10703E03A2800F8BB
S9030154A7
