S02B0000433A2F55736572732F616C756E6F2F4465736B746F702F4D6963726F2F556172745465726D696E61FB
S1130000041191013A2800F8340004040400048423
S11300100440C105C43F000537014085ECFF7FADB6
S113002026FD3FA834008005046D80B5070040B468
S11300302603008835004084440080B506FB3F0059
S1130040370040840C00E08C26FD3F983A70228DE6
S113005037014085ECFF7FAD26FD3FA83500408485
S1130060040280051E03808D04FFFFBD350000B827
S113007006020000350040BC0401C0BD84028004B7
S11300801EEFBF8C0440C105170000BD040C4005E1
S1130090260540A5440C4005262A40A5840C4005AD
S11300A0263540A506DA3F000401C0BD170000BD97
S11300B0040C4005260340A5440C4005261140A528
S11300C006D33F000401C0BD170000BD040840056D
S11300D01ECF7FA50401C0BD170000BD84024005EA
S11300E026CB3FAD3A8809A00401C0BD170000BD6E
S11300F08402400526C63FAD3A880BA0C01E00000E
S113010006C33F000401C0BD170000BD040840053C
S11301101EBF7FA50401C0BD170000BD84024005B9
S113012026BB3FAD3A8809A00401C0BD170000BD3D
S11301308402400526B63FAD3A880BA0401E00005D
S113014006B33F000401C0BD170000BD8402400592
S113015026AF3FAD040C4005260300AD440C40051A
S1130160260300AD06AA3F00C01C000006A83F00FD
S11301700000000006A63F000401C0BD170000BD3A
S11301808402400526A23FAD040C4005260300ADC1
S1130190440C4005260300AD069D3F00C01D000031
S11301A0069B3F00401D000006993F0006983F0053
S11301B006FF3F00456E74726520636F6D206F20EB
S11301C0636F6D616E646F3A20000000C4CC8C01D3
S11301D03A2800F8849999013A2800F84455950181
S11301E03A2800F8848888013A2800F844448401B5
S10701F03A2800F8AD
S9030008F4
