S02B0000433A2F55736572732F616C756E6F2F4465736B746F702F4D6963726F2F556172745465726D696E61FB
S113000034000404040004840440C105C43F000512
S113001037014085ECFF7FAD26FD3FA83400800505
S1130020042180B5070040B42603008835004084CD
S1130030440080B506FB3F00370040840C00E08C90
S113004026FD3F983A70228D37014085ECFF7FAD45
S113005026FD3FA835004084040280051E03808DE0
S113006004FFFFBD350000B806020000350040BCA7
S11300700401C0BD840280041EEFBF8C06E23F0071
S113008006FF3F00456E74726520636F6D206F201C
S10F0090636F6D616E646F3A2000000025
S9030000FC
