S02B0000433A2F55736572732F616C756E6F2F4465736B746F702F556172745465726D696E616C50726F6A65B8
S113000000000000000000000000000000000000EC
S113001000000000000000000000000000000000DC
S11300203A313100260500C004FF7FEF4C0040C385
S1130030260100680010000006000000340044049B
S11300400400488C350000883A0880EF0000000066
S1130050000000000000000000000000000000009C
S1130060000000000000000000000000000000008C
S1130070000000000000000000000000000000007C
S1130080000000000000000000000000000000006C
S1130090000000000000000000000000000000005C
S11300A0000000000000000000000000000000004C
S11300B0000000000000000000000000000000003C
S11300C0000000000000000000000000000000002C
S11300D0000000000000000000000000000000001C
S11300E0000000000000000000000000000000000C
S11300F000000000000000000000000000000000FC
S11301004C00407B440080031E0340733A881DF872
S1130110C03C00003A883F70340040030480416BC7
S11301201700406B440180031E0A806B34004003B7
S11301300480416B150000688C00407B84008003C0
S11301401E0340733A881DF8004700003A883F7048
S11301503A2800F84400406B340080030480817323
S1130160150040733A2800F83400000404C00184E8
S113017015000080340000040480018435000080F0
S1130180440040043A700188FA700188742680049F
S113019004A0A594340044040400488C3502808CE7
S11301A03AD426903503C08CC40100053501008D76
S11301B034000404040004840440C105C43F000561
S11301C037014085ECFF7FAD26FD3FA83400800554
S11301D004DB80B5070040B4260300883500408462
S11301E0440080B506FB3F00370040840C00E08CDF
S11301F026FD3F983A70228D37014085ECFF7FAD94
S113020026FD3FA835004084040280051E03808D2E
S113021004FFFFBD350000B806020000350040BCF5
S11302200401C0BD840280041EEFBF8C0440C105DC
S1130230170000BD040C4005260540A5440C4005EC
S1130240262A40A5840C4005263940A506DA3F003D
S11302500401C0BD170000BD040C4005260340A5E1
S1130260440C4005261140A506D33F000401C0BD3F
S1130270170000BD040840051ECF7FA50401C0BDC2
S1130280170000BD8402400526CB3FAD3A8809A083
S11302900401C0BD170000BD8402400526C63FAD61
S11302A03A880BA0804F000006C33F000401C0BD84
S11302B0170000BD040840051EBF7FA50401C0BD92
S11302C0170000BD8402400526BB3FAD3A8809A053
S11302D00401C0BD170000BD8402400526B63FAD31
S11302E03A880BA0804B000006B33F000401C0BD58
S11302F0170000BD8402400526AF3FAD040C400545
S1130300260300AD440C4005260700AD06AA3F00B5
S11303105400C07B34004405040040AD4400000593
S1130320350000AD06A43F00803B000006A23F005C
S11303300401C0BD170000BD84024005269E3FADE8
S1130340040C4005260300AD440C4005260300AD13
S113035006993F009400C07B06973F0000450000CB
S113036006953F0006943F0006FF3F00456E7472F9
S11303706520636F6D206F20636F6D616E646F3AEB
S113038020000000440000043A700180FA700180EB
S11303907426800404A0A594340044040400488C0A
S11303A03502808C3AD426903503C08CC4010005F4
S11303B03501008D3A2800F88C00C07B340004021B
S11303C004000042350000403A2800F834000402DA
S11303D004000042340044020410404A3700804ABA
S11303E04C00C05244000003260C005B370000435D
S11303F03401C002C4FFFF5A3A70D862440080023C
S1130400260380627AD01860350000433A2800F849
S1130410B4000003350000433A2800F837000043D5
S11304203401C002C4FFFF5A3A70D862B400C0025B
S11304300400C05A2603C0627A9018603500004355
S11304403A2800F844000003350000433A2800F835
S11304504C00C07B34000402040800422500004024
S11304603400000204C00142150000403A2800F89C
S113047034000003042B01633400800204C0815261
S11304801700005244024002260740424400004242
S1130490150000523A8817430700C05A3400040379
S11304A0040800632500C0623A2800F83F065B4F49
S11304B0666D7D077F6F0000340004020400004273
S11304C004F4BF22FA9016507A9014503A88955A40
S11304D03A88930204F4BF2A3A88934A440080027B
S11304E03A9852523A30524A3700C0423A70525AFD
S11304F0350040423A2800F8340004020400004267
S113050004F4BF22FA9016507A9014503A88955AFF
S11305103A88930204F4BF2A3A88934A440080023A
S11305203A9852523700C0423AB0525A35004042CB
S10705303A2800F869
S903016893
